{
  "abi": [
    {
      "inputs": [
        {
          "internalType": "string[]",
          "name": "builderUrls_",
          "type": "string[]"
        }
      ],
      "stateMutability": "nonpayable",
      "type": "constructor"
    },
    {
      "inputs": [
        {
          "internalType": "address",
          "name": "",
          "type": "address"
        },
        {
          "internalType": "bytes",
          "name": "",
          "type": "bytes"
        }
      ],
      "name": "PeekerReverted",
      "type": "error"
    },
    {
      "anonymous": false,
      "inputs": [
        {
          "indexed": false,
          "internalType": "Suave.BidId",
          "name": "bidId",
          "type": "bytes16"
        },
        {
          "indexed": false,
          "internalType": "uint64",
          "name": "decryptionCondition",
          "type": "uint64"
        },
        {
          "indexed": false,
          "internalType": "address[]",
          "name": "allowedPeekers",
          "type": "address[]"
        }
      ],
      "name": "BidEvent",
      "type": "event"
    },
    {
      "anonymous": false,
      "inputs": [
        {
          "indexed": false,
          "internalType": "bytes",
          "name": "Bundle",
          "type": "bytes"
        }
      ],
      "name": "DebugBundleData",
      "type": "event"
    },
    {
      "anonymous": false,
      "inputs": [
        {
          "indexed": false,
          "internalType": "Suave.BidId",
          "name": "bidId",
          "type": "bytes16"
        },
        {
          "indexed": false,
          "internalType": "bytes",
          "name": "hint",
          "type": "bytes"
        }
      ],
      "name": "HintEvent",
      "type": "event"
    },
    {
      "anonymous": false,
      "inputs": [
        {
          "indexed": false,
          "internalType": "Suave.BidId",
          "name": "matchBidId",
          "type": "bytes16"
        },
        {
          "indexed": false,
          "internalType": "bytes",
          "name": "matchHint",
          "type": "bytes"
        }
      ],
      "name": "MatchEvent",
      "type": "event"
    },
    {
      "inputs": [
        {
          "internalType": "uint256",
          "name": "",
          "type": "uint256"
        }
      ],
      "name": "builderUrls",
      "outputs": [
        {
          "internalType": "string",
          "name": "",
          "type": "string"
        }
      ],
      "stateMutability": "view",
      "type": "function"
    },
    {
      "inputs": [
        {
          "components": [
            {
              "internalType": "Suave.BidId",
              "name": "id",
              "type": "bytes16"
            },
            {
              "internalType": "Suave.BidId",
              "name": "salt",
              "type": "bytes16"
            },
            {
              "internalType": "uint64",
              "name": "decryptionCondition",
              "type": "uint64"
            },
            {
              "internalType": "address[]",
              "name": "allowedPeekers",
              "type": "address[]"
            },
            {
              "internalType": "address[]",
              "name": "allowedStores",
              "type": "address[]"
            },
            {
              "internalType": "string",
              "name": "version",
              "type": "string"
            }
          ],
          "internalType": "struct Suave.Bid",
          "name": "bid",
          "type": "tuple"
        }
      ],
      "name": "emitBid",
      "outputs": [],
      "stateMutability": "nonpayable",
      "type": "function"
    },
    {
      "inputs": [
        {
          "components": [
            {
              "internalType": "Suave.BidId",
              "name": "id",
              "type": "bytes16"
            },
            {
              "internalType": "Suave.BidId",
              "name": "salt",
              "type": "bytes16"
            },
            {
              "internalType": "uint64",
              "name": "decryptionCondition",
              "type": "uint64"
            },
            {
              "internalType": "address[]",
              "name": "allowedPeekers",
              "type": "address[]"
            },
            {
              "internalType": "address[]",
              "name": "allowedStores",
              "type": "address[]"
            },
            {
              "internalType": "string",
              "name": "version",
              "type": "string"
            }
          ],
          "internalType": "struct Suave.Bid",
          "name": "bid",
          "type": "tuple"
        },
        {
          "internalType": "bytes",
          "name": "hint",
          "type": "bytes"
        }
      ],
      "name": "emitBidAndHint",
      "outputs": [],
      "stateMutability": "nonpayable",
      "type": "function"
    },
    {
      "inputs": [
        {
          "components": [
            {
              "internalType": "Suave.BidId",
              "name": "id",
              "type": "bytes16"
            },
            {
              "internalType": "Suave.BidId",
              "name": "salt",
              "type": "bytes16"
            },
            {
              "internalType": "uint64",
              "name": "decryptionCondition",
              "type": "uint64"
            },
            {
              "internalType": "address[]",
              "name": "allowedPeekers",
              "type": "address[]"
            },
            {
              "internalType": "address[]",
              "name": "allowedStores",
              "type": "address[]"
            },
            {
              "internalType": "string",
              "name": "version",
              "type": "string"
            }
          ],
          "internalType": "struct Suave.Bid",
          "name": "bid",
          "type": "tuple"
        },
        {
          "internalType": "bytes",
          "name": "matchHint",
          "type": "bytes"
        },
        {
          "internalType": "bytes",
          "name": "bundle",
          "type": "bytes"
        }
      ],
      "name": "externalDebugEmitMatchBidHintAndBundle",
      "outputs": [
        {
          "internalType": "bytes",
          "name": "",
          "type": "bytes"
        }
      ],
      "stateMutability": "nonpayable",
      "type": "function"
    },
    {
      "inputs": [],
      "name": "fetchBidConfidentialBundleData",
      "outputs": [
        {
          "internalType": "bytes",
          "name": "",
          "type": "bytes"
        }
      ],
      "stateMutability": "nonpayable",
      "type": "function"
    },
    {
      "inputs": [
        {
          "internalType": "uint64",
          "name": "decryptionCondition",
          "type": "uint64"
        },
        {
          "internalType": "address[]",
          "name": "bidAllowedPeekers",
          "type": "address[]"
        },
        {
          "internalType": "address[]",
          "name": "bidAllowedStores",
          "type": "address[]"
        }
      ],
      "name": "newBid",
      "outputs": [
        {
          "internalType": "bytes",
          "name": "",
          "type": "bytes"
        }
      ],
      "stateMutability": "payable",
      "type": "function"
    },
    {
      "inputs": [
        {
          "internalType": "uint64",
          "name": "decryptionCondition",
          "type": "uint64"
        },
        {
          "internalType": "address[]",
          "name": "bidAllowedPeekers",
          "type": "address[]"
        },
        {
          "internalType": "address[]",
          "name": "bidAllowedStores",
          "type": "address[]"
        },
        {
          "internalType": "Suave.BidId",
          "name": "shareBidId",
          "type": "bytes16"
        }
      ],
      "name": "newMatch",
      "outputs": [
        {
          "internalType": "bytes",
          "name": "",
          "type": "bytes"
        }
      ],
      "stateMutability": "payable",
      "type": "function"
    },
    {
      "inputs": [
        {
          "internalType": "uint64",
          "name": "decryptionCondition",
          "type": "uint64"
        },
        {
          "internalType": "address[]",
          "name": "bidAllowedPeekers",
          "type": "address[]"
        },
        {
          "internalType": "address[]",
          "name": "bidAllowedStores",
          "type": "address[]"
        },
        {
          "internalType": "Suave.BidId",
          "name": "shareBidId",
          "type": "bytes16"
        }
      ],
      "name": "newMatchBundleSender",
      "outputs": [
        {
          "internalType": "bytes",
          "name": "",
          "type": "bytes"
        }
      ],
      "stateMutability": "payable",
      "type": "function"
    }
  ],
  "bytecode": {
    "object": "0x60806040523480156200001157600080fd5b506040516200205538038062002055833981016040819052620000349162000171565b80516200004990600090602084019062000051565b505062000410565b8280548282559060005260206000209081019282156200009c579160200282015b828111156200009c57825182906200008b908262000344565b509160200191906001019062000072565b50620000aa929150620000ae565b5090565b80821115620000aa576000620000c58282620000cf565b50600101620000ae565b508054620000dd90620002b5565b6000825580601f10620000ee575050565b601f0160209004906000526020600020908101906200010e919062000111565b50565b5b80821115620000aa576000815560010162000112565b634e487b7160e01b600052604160045260246000fd5b604051601f8201601f191681016001600160401b038111828210171562000169576200016962000128565b604052919050565b600060208083850312156200018557600080fd5b82516001600160401b03808211156200019d57600080fd5b8185019150601f8681840112620001b357600080fd5b825182811115620001c857620001c862000128565b8060051b620001d98682016200013e565b918252848101860191868101908a841115620001f457600080fd5b87870192505b83831015620002a757825186811115620002145760008081fd5b8701603f81018c13620002275760008081fd5b88810151878111156200023e576200023e62000128565b62000251818801601f19168b016200013e565b81815260408e81848601011115620002695760008081fd5b60005b8381101562000289578481018201518382018e01528c016200026c565b505060009181018b01919091528352509187019190870190620001fa565b9a9950505050505050505050565b600181811c90821680620002ca57607f821691505b602082108103620002eb57634e487b7160e01b600052602260045260246000fd5b50919050565b601f8211156200033f57600081815260208120601f850160051c810160208610156200031a5750805b601f850160051c820191505b818110156200033b5782815560010162000326565b5050505b505050565b81516001600160401b0381111562000360576200036062000128565b6200037881620003718454620002b5565b84620002f1565b602080601f831160018114620003b05760008415620003975750858301515b600019600386901b1c1916600185901b1785556200033b565b600085815260208120601f198616915b82811015620003e157888601518255948401946001909101908401620003c0565b5085821015620004005787850151600019600388901b60f8161c191681555b5050505050600190811b01905550565b611c3580620004206000396000f3fe60806040526004361061007b5760003560e01c8063be84ce381161004e578063be84ce3814610100578063c0b9d28714610120578063d4e58f6314610140578063d8f55db91461014057600080fd5b80631141a0b014610080578063236eb5a7146100b657806389026c11146100c957806392f07a58146100eb575b600080fd5b34801561008c57600080fd5b506100a061009b366004611007565b610153565b6040516100ad9190611070565b60405180910390f35b6100a06100c43660046111c5565b6101ff565b3480156100d557600080fd5b506100e96100e43660046112b2565b610447565b005b3480156100f757600080fd5b506100a06104e1565b34801561010c57600080fd5b506100a061011b366004611371565b61051a565b34801561012c57600080fd5b506100e961013b366004611405565b6105a2565b6100a061014e36600461145a565b6105f6565b6000818154811061016357600080fd5b90600052602060002001600091509050805461017e906114e2565b80601f01602080910402602001604051908101604052809291908181526020018280546101aa906114e2565b80156101f75780601f106101cc576101008083540402835291602001916101f7565b820191906000526020600020905b8154815290600101906020018083116101da57829003601f168201915b505050505081565b606061020961082c565b61021257600080fd5b6000306001600160a01b03166392f07a586040518163ffffffff1660e01b81526004016000604051808303816000875af1158015610254573d6000803e3d6000fd5b505050506040513d6000823e601f3d908101601f1916820160405261027c9190810190611546565b90506000610289826108b5565b905060006102968361097a565b905060006102db8888886040518060400160405280601c81526020017f6d657673686172653a76303a756e6d61746368656442756e646c657300000000815250610a34565b905061031a8160000151604051806040016040528060168152602001756d657673686172653a76303a65746842756e646c657360501b81525086610b31565b8051604080518082018252601f81527f6d657673686172653a76303a65746842756e646c6553696d526573756c74730060208083019190915282516001600160401b038816918101919091526103819392015b604051602081830303815290604052610b31565b600080516020611c098339815191528160000151826040015183606001516040516103ae939291906115d2565b60405180910390a180516040517fdab8306bad2ca820d05b9eff8da2e3016d372c15f00bb032f758718b9cda3950916103e8918590611604565b60405180910390a16040516389026c1160e01b9061040c90839085906020016116a4565b60408051601f198184030181529082905261042a92916020016116c9565b6040516020818303038152906040529450505050505b9392505050565b600080516020611c0983398151915261046360208401846116fa565b6104736060850160408601611717565b6104806060860186611734565b604051610490949392919061177d565b60405180910390a17fdab8306bad2ca820d05b9eff8da2e3016d372c15f00bb032f758718b9cda39506104c660208401846116fa565b826040516104d5929190611604565b60405180910390a15050565b60606104eb61082c565b6104f457600080fd5b60006104fe610be3565b9050808060200190518101906105149190611546565b91505090565b606061059861052887611812565b86868080601f01602080910402602001604051908101604052809392919081815260200183838082843760009201919091525050604080516020601f8a018190048102820181019092528881529250889150879081908401838280828437600092019190915250610c7b92505050565b9695505050505050565b600080516020611c098339815191526105be60208301836116fa565b6105ce6060840160408501611717565b6105db6060850185611734565b6040516105eb949392919061177d565b60405180910390a150565b606061060061082c565b61060957600080fd5b6000306001600160a01b03166392f07a586040518163ffffffff1660e01b81526004016000604051808303816000875af115801561064b573d6000803e3d6000fd5b505050506040513d6000823e601f3d908101601f191682016040526106739190810190611546565b90506000610680826108b5565b9050600061068d8361097a565b905060006106ca898989604051806040016040528060158152602001746d657673686172653a76303a6d617463684269647360581b815250610a34565b90506107098160000151604051806040016040528060168152602001756d657673686172653a76303a65746842756e646c657360501b81525086610b31565b8051604080518082018252601f81527f6d657673686172653a76303a65746842756e646c6553696d526573756c747300602080830191909152825160009181019190915261075893920161036d565b604080516002808252606082018352600092602083019080368337019050509050868160008151811061078d5761078d6118d6565b6001600160801b03199092166020928302919091019091015281518151829060019081106107bd576107bd6118d6565b6001600160801b0319909216602092830291909101820152825160408051808201825260168152756d657673686172653a76303a6d65726765644269647360501b8185015290516108149361036d918691016118ec565b61081e8284610d2a565b9a9950505050505050505050565b6040516000908190819063420100009082818181855afa9150503d8060008114610872576040519150601f19603f3d011682016040523d82523d6000602084013e610877565b606091505b5091509150816108ab576342010000816040516375fff46760e01b81526004016108a292919061193a565b60405180910390fd5b6020015192915050565b600080600063421000006001600160a01b0316846040516020016108d99190611070565b60408051601f19818403018152908290526108f39161195e565b600060405180830381855afa9150503d806000811461092e576040519150601f19603f3d011682016040523d82523d6000602084013e610933565b606091505b50915091508161095e576342100000816040516375fff46760e01b81526004016108a292919061193a565b808060200190518101906109729190611985565b949350505050565b606061098461082c565b61098d57600080fd5b60008063421000376001600160a01b0316846040516020016109af9190611070565b60408051601f19818403018152908290526109c99161195e565b600060405180830381855afa9150503d8060008114610a04576040519150601f19603f3d011682016040523d82523d6000602084013e610a09565b606091505b509150915081610440576342100037816040516375fff46760e01b81526004016108a292919061193a565b6040805160c0810182526000808252602082018190529181019190915260608082018190526080820181905260a082015260008063420300006001600160a01b031687878787604051602001610a8d94939291906119a2565b60408051601f1981840301815290829052610aa79161195e565b600060405180830381855afa9150503d8060008114610ae2576040519150601f19603f3d011682016040523d82523d6000602084013e610ae7565b606091505b509150915081610b12576342030000816040516375fff46760e01b81526004016108a292919061193a565b80806020019051810190610b269190611a79565b979650505050505050565b60008063420200006001600160a01b0316858585604051602001610b5793929190611b60565b60408051601f1981840301815290829052610b719161195e565b600060405180830381855afa9150503d8060008114610bac576040519150601f19603f3d011682016040523d82523d6000602084013e610bb1565b606091505b509150915081610bdc576342020000816040516375fff46760e01b81526004016108a292919061193a565b5050505050565b604080516000808252602082019283905260609290918291634201000191610c0a9161195e565b600060405180830381855afa9150503d8060008114610c45576040519150601f19603f3d011682016040523d82523d6000602084013e610c4a565b606091505b509150915081610c75576342010001816040516375fff46760e01b81526004016108a292919061193a565b92915050565b60607fd0dc5c1975f9cdf03623c186e7570028dabe2190b4e618f2c0d3a98b2e67c09282604051610cac9190611070565b60405180910390a1600080516020611c09833981519152846000015185604001518660600151604051610ce1939291906115d2565b60405180910390a183516040517fdab8306bad2ca820d05b9eff8da2e3016d372c15f00bb032f758718b9cda395091610d1b918690611604565b60405180910390a19392505050565b60606000610d3b8460000151610e88565b905060005b600054811015610e3357610e2060008281548110610d6057610d606118d6565b906000526020600020018054610d75906114e2565b80601f0160208091040260200160405190810160405280929190818152602001828054610da1906114e2565b8015610dee5780601f10610dc357610100808354040283529160200191610dee565b820191906000526020600020905b815481529060010190602001808311610dd157829003601f168201915b50505050506040518060400160405280600e81526020016d6d65765f73656e6442756e646c6560901b81525084610f40565b5080610e2b81611b95565b915050610d40565b506040516317d099c760e31b90610e5290869086908590602001611bbc565b60408051601f1981840301815290829052610e7092916020016116c9565b60405160208183030381529060405291505092915050565b6060610e9261082c565b610e9b57600080fd5b604080516001600160801b03198416602082015260009182916343200001910160408051601f1981840301815290829052610ed59161195e565b600060405180830381855afa9150503d8060008114610f10576040519150601f19603f3d011682016040523d82523d6000602084013e610f15565b606091505b509150915081610440576343200001816040516375fff46760e01b81526004016108a292919061193a565b6060610f4a61082c565b610f5357600080fd5b60008063430000016001600160a01b0316868686604051602001610f7993929190611bf5565b60408051601f1981840301815290829052610f939161195e565b600060405180830381855afa9150503d8060008114610fce576040519150601f19603f3d011682016040523d82523d6000602084013e610fd3565b606091505b509150915081610ffe576343000001816040516375fff46760e01b81526004016108a292919061193a565b95945050505050565b60006020828403121561101957600080fd5b5035919050565b60005b8381101561103b578181015183820152602001611023565b50506000910152565b6000815180845261105c816020860160208601611020565b601f01601f19169290920160200192915050565b6020815260006104406020830184611044565b6001600160401b038116811461109857600080fd5b50565b80356110a681611083565b919050565b634e487b7160e01b600052604160045260246000fd5b60405160c081016001600160401b03811182821017156110e3576110e36110ab565b60405290565b604051601f8201601f191681016001600160401b0381118282101715611111576111116110ab565b604052919050565b60006001600160401b03821115611132576111326110ab565b5060051b60200190565b6001600160a01b038116811461109857600080fd5b600082601f83011261116257600080fd5b8135602061117761117283611119565b6110e9565b82815260059290921b8401810191818101908684111561119657600080fd5b8286015b848110156111ba5780356111ad8161113c565b835291830191830161119a565b509695505050505050565b6000806000606084860312156111da57600080fd5b83356111e581611083565b925060208401356001600160401b038082111561120157600080fd5b61120d87838801611151565b9350604086013591508082111561122357600080fd5b5061123086828701611151565b9150509250925092565b600060c0828403121561124c57600080fd5b50919050565b60006001600160401b0382111561126b5761126b6110ab565b50601f01601f191660200190565b600061128761117284611252565b905082815283838301111561129b57600080fd5b828260208301376000602084830101529392505050565b600080604083850312156112c557600080fd5b82356001600160401b03808211156112dc57600080fd5b6112e88683870161123a565b935060208501359150808211156112fe57600080fd5b508301601f8101851361131057600080fd5b61131f85823560208401611279565b9150509250929050565b60008083601f84011261133b57600080fd5b5081356001600160401b0381111561135257600080fd5b60208301915083602082850101111561136a57600080fd5b9250929050565b60008060008060006060868803121561138957600080fd5b85356001600160401b03808211156113a057600080fd5b6113ac89838a0161123a565b965060208801359150808211156113c257600080fd5b6113ce89838a01611329565b909650945060408801359150808211156113e757600080fd5b506113f488828901611329565b969995985093965092949392505050565b60006020828403121561141757600080fd5b81356001600160401b0381111561142d57600080fd5b6109728482850161123a565b6001600160801b03198116811461109857600080fd5b80356110a681611439565b6000806000806080858703121561147057600080fd5b843561147b81611083565b935060208501356001600160401b038082111561149757600080fd5b6114a388838901611151565b945060408701359150808211156114b957600080fd5b506114c687828801611151565b92505060608501356114d781611439565b939692955090935050565b600181811c908216806114f657607f821691505b60208210810361124c57634e487b7160e01b600052602260045260246000fd5b600061152461117284611252565b905082815283838301111561153857600080fd5b610440836020830184611020565b60006020828403121561155857600080fd5b81516001600160401b0381111561156e57600080fd5b8201601f8101841361157f57600080fd5b61097284825160208401611516565b600081518084526020808501945080840160005b838110156115c75781516001600160a01b0316875295820195908201906001016115a2565b509495945050505050565b6001600160801b0319841681526001600160401b0383166020820152606060408201526000610ffe606083018461158e565b6001600160801b0319831681526040602082015260006109726040830184611044565b60006001600160801b0319808351168452806020840151166020850152506001600160401b036040830151166040840152606082015160c0606085015261167160c085018261158e565b90506080830151848203608086015261168a828261158e565b91505060a083015184820360a0860152610ffe8282611044565b6040815260006116b76040830185611627565b8281036020840152610ffe8185611044565b6001600160e01b03198316815281516000906116ec816004850160208701611020565b919091016004019392505050565b60006020828403121561170c57600080fd5b813561044081611439565b60006020828403121561172957600080fd5b813561044081611083565b6000808335601e1984360301811261174b57600080fd5b8301803591506001600160401b0382111561176557600080fd5b6020019150600581901b360382131561136a57600080fd5b6000606082016001600160801b03198716835260206001600160401b03871681850152606060408501528185835260808501905086925060005b868110156117e55783356117ca8161113c565b6001600160a01b0316825292820192908201906001016117b7565b5098975050505050505050565b600082601f83011261180357600080fd5b61044083833560208501611279565b600060c0823603121561182457600080fd5b61182c6110c1565b6118358361144f565b81526118436020840161144f565b60208201526118546040840161109b565b604082015260608301356001600160401b038082111561187357600080fd5b61187f36838701611151565b6060840152608085013591508082111561189857600080fd5b6118a436838701611151565b608084015260a08501359150808211156118bd57600080fd5b506118ca368286016117f2565b60a08301525092915050565b634e487b7160e01b600052603260045260246000fd5b6020808252825182820181905260009190848201906040850190845b8181101561192e5783516001600160801b03191683529284019291840191600101611908565b50909695505050505050565b6001600160a01b038316815260406020820181905260009061097290830184611044565b60008251611970818460208701611020565b9190910192915050565b80516110a681611083565b60006020828403121561199757600080fd5b815161044081611083565b6001600160401b03851681526080602082015260006119c4608083018661158e565b82810360408401526119d6818661158e565b90508281036060840152610b268185611044565b80516110a681611439565b600082601f830112611a0657600080fd5b81516020611a1661117283611119565b82815260059290921b84018101918181019086841115611a3557600080fd5b8286015b848110156111ba578051611a4c8161113c565b8352918301918301611a39565b600082601f830112611a6a57600080fd5b61044083835160208501611516565b600060208284031215611a8b57600080fd5b81516001600160401b0380821115611aa257600080fd5b9083019060c08286031215611ab657600080fd5b611abe6110c1565b611ac7836119ea565b8152611ad5602084016119ea565b6020820152611ae66040840161197a565b6040820152606083015182811115611afd57600080fd5b611b09878286016119f5565b606083015250608083015182811115611b2157600080fd5b611b2d878286016119f5565b60808301525060a083015182811115611b4557600080fd5b611b5187828601611a59565b60a08301525095945050505050565b6001600160801b031984168152606060208201526000611b836060830185611044565b82810360408401526105988185611044565b600060018201611bb557634e487b7160e01b600052601160045260246000fd5b5060010190565b606081526000611bcf6060830186611627565b8281036020840152611be18186611044565b905082810360408401526105988185611044565b606081526000611bcf606083018661104456fe83481d5b04dea534715acad673a8177a46fc93882760f36bdc16ccac439d504ea164736f6c6343000813000a",
    "linkReferences": {}
  },
  "methodIdentifiers": {
    "builderUrls(uint256)": "1141a0b0",
    "emitBid((bytes16,bytes16,uint64,address[],address[],string))": "c0b9d287",
    "emitBidAndHint((bytes16,bytes16,uint64,address[],address[],string),bytes)": "89026c11",
    "externalDebugEmitMatchBidHintAndBundle((bytes16,bytes16,uint64,address[],address[],string),bytes,bytes)": "be84ce38",
    "fetchBidConfidentialBundleData()": "92f07a58",
    "newBid(uint64,address[],address[])": "236eb5a7",
    "newMatch(uint64,address[],address[],bytes16)": "d8f55db9",
    "newMatchBundleSender(uint64,address[],address[],bytes16)": "d4e58f63"
  },
  "id": 1
}